:020000040800F2
:10000000008001202973000879730008E15D000871
:10001000E75D0008ED5D0008F35D000800000000EA
:10002000000000000000000000000000093000088F
:100030007973000800000000A3300008B330000806
:1000400079730008797300087973000879730008E0
:1000500079730008797300087973000879730008D0
:1000600079730008797300087973000879730008C0
:1000700079730008797300087973000879730008B0
:100080007973000879730008797300080000000094
:10009000000000000000000000000000797300086C
:1000A0007973000879730008797300087973000880
:1000B0007973000879730008797300087973000870
:1000C0007973000879730008797300087973000860
:1000D0007973000879730008797300080000000044
:1000E0007973000879730008797300080000000034
:1000F000000000000000000000000000797300080C
:100100000000000079730008797300087973000813
:1001100000000000000000000000000000000000DF
:1001200079730008797300087973000879730008FF
:1001300079730008000000000000000000000000CB
:1001400000000000000000000000000079730008BB
:1001500079730008797300087973000879730008CF
:1001600079730008797300080000000000000000A7
:10017000000000000000000000000000000000007F
:10018000000000007973000800000000000000007B
:10019000797300080348044B834202D0034B03B138
:1001A00018477047500D0020500D0020000000003F
:1001B000054806490B1AD90F01EBA301491002D0DB
:1001C000034B03B118477047500D0020500D00201D
:1001D0000000000010B5064C237843B9FFF7DAFFA2
:1001E000044B13B10448AFF300800123237010BD0A
:1001F000600D0020000000009C7B010808B5044B46
:100200001BB104490448AFF30080BDE80840CFE7C4
:1002100000000000640D00209C7B0108A3F5803ADB
:10022000704700BF154B002B08BF114B9D46FFF7D1
:10023000F5FF00218B460F461148124A121A0DF0A5
:10024000E1FB0C4B002B00D098470B4B002B00D050
:1002500098470020002104000D000B4806F070FDB7
:100260000CF0EAFE2000290004F0B8FB06F062FF63
:10027000000008000000000039490008008001204B
:10028000600D00208832002039C90008704770478F
:1002900037B50C4600230A49ADF80630154620460E
:1002A0000DF106020DF02EFD20460CF01FF9054B56
:1002B00005491880284603B0BDE830400DF02EBF38
:1002C00040580108A20D00204458010830B5C36011
:1002D000039B0361049B43610025059B0570C0E9F6
:1002E0000112836130BD7047F0B5044689B00846FD
:1002F00017460CF0FBF84E4B1B78002B3FD1C5B2D4
:100300001E2D00F28B804B4BEB40DB0740F18680CB
:100310002570002D35D1484E3378002B2FD047491A
:100320002A46384606F098F84549A06801AA02F026
:1003300099FA322006F0E8FF4149E06801AA02F08C
:1003400003FB322006F0E0FF3D49206901AA02F0DC
:1003500049FD322006F0D8FF3949606901AA00F052
:1003600075F9322006F0D0FF3549A06901AA02F0E4
:10037000CBFC3449357001AA606802F023F809B05B
:10038000F0BD0F2D01D01E2DF9D12B4E33780F2B40
:100390004BD02A492A46384606F05EF82A49606959
:1003A00001AA00F079F90F233370284B1B7823B989
:1003B0002749A06801AA02F055FA264B1B7823B9F9
:1003C0002349E06801AA02F0BFFA234B1B7823B946
:1003D0001F49206901AA02F005FD204B1B7823B9B3
:1003E0001B49A06901AA02F08FFC1D49606801AA9F
:1003F00001F0E8FF1E2DC2D133781E2BBFD00F496C
:100400001E22384606F028F80F4960691E2301AA0B
:10041000337000F041F9134901AAADE7124938469B
:1004200009B0BDE8F0400DF079BE1E2DE7D0A6E77B
:100430007C0D002001800040B80D002012680108EA
:1004400092690108B55E0108485801087E0D002038
:100450004E5801087F0D00207D0D0020800D0020EA
:10046000A16401084C5801085058010810B5034B0D
:100470000360044602F02AFD204610BD3C590108E5
:1004800010B50446FFF7F2FF2046382106F08CFE37
:10049000204610BD30B590F82830013B9BB0044693
:1004A000032B1CD8DFE803F0021D2533406A216BC3
:1004B000036849421B689847236B234A642101A8BB
:1004C00005F0DBFFE56901A80DF09AFE2B680246F6
:1004D0001B6901A928469847002384F828301BB0DF
:1004E00030BD006A616B03681B689847636B174AED
:1004F000E4E7006A616B03681B689847606A0368F9
:100500009B689847124901A80DF008FEDAE7C18DF3
:10051000828D438D0A44934213DB406A03680021B5
:100520001B689847206A036800211B689847E069A8
:100530000849002384F8283003680F221B69984774
:10054000CDE70B444385CAE75D5801086B580108A5
:10055000795801088658010838B50446154602F056
:10056000A7FC094B2360049BE361059B2362069B68
:1005700063620023C4E90C3384F828306385A385C3
:10058000E585204638BD00BF3C59010873B50E46CD
:10059000044612491546304601AA0DF0B3FB304619
:1005A0000BF0A4FF0E4B01901B781E2B014612D1BD
:1005B000606A03685B68984730B90A49284602B008
:1005C000BDE870400DF0AABD012384F82830019BDE
:1005D000236302B070BD0449F0E700BF1268010850
:1005E000B80D002095580108BD58010873B50E4696
:1005F000044612491546304601AA0DF083FB3046E9
:100600000BF074FF0E4B01901B781E2B014612D18C
:10061000206A03685B68984730B90A49284602B0E7
:10062000BDE870400DF07ABD022384F82830019BAC
:10063000636302B070BD0449F0E700BF12680108AF
:10064000B80D0020D1580108BD58010873B50D46FA
:1006500004460F491646284601AA0DF053FB2846CA
:100660000BF044FF01460190206A03685B689847DD
:1006700030B90849304602B0BDE870400DF04EBDBB
:10068000032384F82830019B636302B070BD00BF70
:1006900012680108D15801082DE9F04186B005AB78
:1006A0001646009303AA04AB0546084627490DF0F9
:1006B00029FB9DF814802649CDF80080DDE903234D
:1006C0000746304605F0C8FE304605F0AFFE214B28
:1006D0001B781E2B06D02049304606B0BDE8F041FD
:1006E0000DF01CBDFFB21FFA88F4032FAC852AD190
:1006F000039A02F5FA73B3F57A7F24D8049B03F1C9
:10070000E801B1F5E87F1ED81049CDF800803046E9
:1007100005F0A2FE0023286A6B85042385F82830A3
:1007200004EB8404036804991B6804EB8404A400AC
:10073000AC859847686A0399036849421B689847E3
:1007400006B0BDE8F0810549C6E700BFF8580108CA
:1007500001590108B80D0020BD58010817590108BA
:100760002DE9F341DFF8F080C568C8F800000024E7
:100770008DF802408DF80340ADF804400DF10302FE
:1007800001230721407AA8470546D8F800000DF15B
:1007900002020669407A21460123B0472844C5B2C7
:1007A000D8F800009DF80230037001230469407AF4
:1007B0000DF102021946A0472844C4B2D8F800003F
:1007C0009DF80230056943710DF1020201230221F7
:1007D000407AA8472044C7B2D8F800009DF80230FC
:1007E000046983710DF1020201230321407AA047BD
:1007F0003844C6B2D8F800009DF802300469C371CD
:100800000DF1020201230621407AA0473044C5B20F
:10081000D8F800009DF802300469037201AA02238F
:100820000421407AA0472844C4B2D8F80000BDF89B
:100830000430056943800DF1020201230721407A4B
:10084000A847D8F800309DF802201A71204440B221
:1008500002B0BDE8F08100BFBC0D00201346074A7E
:1008600030B4146834B1E5680A46AC460146607A93
:1008700030BC60476FF07E0030BC7047BC0D00207C
:1008800073B5124D0446286800238DF80730B0B1C7
:100890000669407A01230DF107020721B04788B9A4
:1008A00028688DF80740C668407A01230DF10702D9
:1008B0000721B04708B92B681C7102B070BD6FF0FA
:1008C0007E00FAE74FF0FF30F7E700BFBC0D0020D5
:1008D00073B5144C236805460020ADF80400264685
:1008E000E3B11B797BB9306802230469407A01AA1D
:1008F0001A21A0479DF905209DF8043043EA022300
:100900002B8002B070BDFFF7BBFF0028EBD023683F
:100910001B79002BE7D04FF0FF30F2E76FF07E003D
:10092000EFE700BFBC0D002073B5144C23680546EB
:100930000020ADF804002646E3B11B797BB930688E
:1009400002230469407A01AA1C21A0479DF90520D1
:100950009DF8043043EA02232B8002B070BDFFF7FC
:100960008FFF0028EBD023681B79002BE7D04FF0D6
:10097000FF30F2E76FF07E00EFE700BFBC0D002014
:1009800073B5144C236805460020ADF804002646D4
:10099000E3B11B797BB9306802230469407A01AA6C
:1009A0001E21A0479DF905209DF8043043EA02234B
:1009B0002B8002B070BDFFF763FF0028EBD02368E7
:1009C0001B79002BE7D04FF0FF30F2E76FF07E008D
:1009D000EFE700BFBC0D002073B5144C236805463B
:1009E0000020ADF804002646E3B11B797BB93068DE
:1009F00002230469407A01AA2821A0479DF9052015
:100A00009DF8043043EA02232B8002B070BDFFF74B
:100A100037FF0028EBD023681B79002BE7D04FF07D
:100A2000FF30F2E76FF07E00EFE700BFBC0D002063
:100A300073B5144C236805460020ADF80400264623
:100A4000E3B11B797BB9306802230469407A01AABB
:100A50002A21A0479DF905209DF8043043EA02238E
:100A60002B8002B070BDFFF70BFF0028EBD023688E
:100A70001B79002BE7D04FF0FF30F2E76FF07E00DC
:100A8000EFE700BFBC0D002073B5144C236805468A
:100A90000020ADF804002646E3B11B797BB930682D
:100AA00002230469407A01AA2C21A0479DF9052060
:100AB0009DF8043043EA02232B8002B070BDFFF79B
:100AC000DFFE0028EBD023681B79002BE7D04FF026
:100AD000FF30F2E76FF07E00EFE700BFBC0D0020B3
:100AE00073B5134C2368054600208DF80700264691
:100AF000DBB11B7973B9306801230469407A0DF1C9
:100B000007023B21A0479DF80730C3F380032B70F9
:100B100002B070BDFFF7B4FE0028ECD023681B794B
:100B2000002BE8D04FF0FF30F2E76FF07E00EFE7E8
:100B3000BC0D002073B5134C2368054600208DF8CA
:100B400007002646DBB11B7973B9306801230469BD
:100B5000407A0DF107023D21A0479DF8073003F0D0
:100B60000F032B7002B070BDFFF78AFE0028ECD097
:100B700023681B79002BE8D04FF0FF30F2E76FF0CD
:100B80007E00EFE7BC0D0020F7B53B4F00238DF84A
:100B900006308DF807303B6805463E46002B65D091
:100BA0000DF10700FFF7C6FF002862D13B681C6902
:100BB000587A9DF8073003BB01230DF106023D2151
:100BC000A0470446B0B99DF80630386823F00F03FB
:100BD00005F00F051D43C4688DF806500123407AC7
:100BE0000DF106023D21A0473B6804465B694FF4C6
:100BF00016709847204603B0F0BD01230DF10602A0
:100C00003D21A047044680B99DF80630012223F01B
:100C10000F030DF106013D208DF80630FFF71EFE93
:100C20003B6804465B6914209847002DE2D0306889
:100C300001230469407A0DF106023D21A0470446D4
:100C40000028D7D19DF80630306823F00F0305F057
:100C50000F051D43C4688DF806500123407A0DF13D
:100C600006023D21A04733680446BFE76FF07E04CB
:100C7000C0E74FF0FF34BDE7BC0D002073B5224E36
:100C800000238DF806308DF8073033680546002BB9
:100C900037D00DF10700FFF74DFF58B14FF0FF348B
:100CA0009DF8070018B1FFF76FFF204444B22046BB
:100CB00002B070BD9DF80730F3B9306801230469B4
:100CC000407A0DF106023B21A04704460028E7D1F7
:100CD0009DF806303068AD0023F0040305F00405EC
:100CE0001D43C4688DF80650407A01230DF10602B9
:100CF0003B21A0470446D3E7FFF746FF0028CDD1AC
:100D0000DBE76FF07E04D2E7BC0D002073B5224D07
:100D100000238DF806308DF807302B680646002B2F
:100D200036D00DF10700FFF705FF58B14FF0FF3443
:100D30009DF8070018B1FFF727FF204444B2204672
:100D400002B070BD9DF80730EBB928680123046933
:100D5000407A0DF106023E21A04704460028E7D163
:100D60009DF8063006F0030023F0030318438DF8C6
:100D7000060028680123C468407A0DF106023E216E
:100D8000A0470446D4E7FFF7FFFE0028CED1DCE7FA
:100D90006FF07E04D3E700BFBC0D002070477047A2
:100DA00010B54FF48871044606F0FEF9204610BDD8
:100DB0000B6803604B6843608B688360704710B4B6
:100DC000D0E901320168541001EB6200D20748BF3C
:100DD0000A595DF8044B48BFD358184737B5044645
:100DE00072B6FF25E06904F0DDF9A8B3D4F8243128
:100DF000D4F828110133B3FBF5F2C2EB02229B1A9F
:100E00008B4229D0E069036801225B690DF107017B
:100E10009847D4F82431D4F828110133B3FBF5F204
:100E2000C2EB02229B1A8B42DCD0D4F824319DF80D
:100E30000720234483F82420D4F824310133B3FB62
:100E4000F5F2C2EB02229B1AC4F82431D4F82C31FB
:100E50000133C4F82C31C5E762B603B030BD0000E1
:100E60002DE9F047D0F8282104460132D0F82401BA
:100E7000FF23B2FBF3F1C1EB0121521A8242ADF51F
:100E8000027D2AD0D4F82821D4F824010132B2FB03
:100E9000F3F1C1EB0121521A824222D0D4F8282169
:100EA0000132B2FBF3F3C3EB0323D31AC4F82831A6
:100EB000D4F82831234493F82420D4F82C31232A61
:100EC00003F1FF335FFA82F8C4F82C310BD184F8B8
:100ED000408204F24123C4F840330DF5027DBDE8A1
:100EE000F0874FF00008D4F8403304F55072934275
:100EF000F3D0B8F10A0F7ED113F8032C3B2A7AD134
:100F000013F8022C3B2A76D113F8013C0D2B72D139
:100F100004F510793C4912AB02AA48460CF0F2FEE7
:100F2000022866D144AB02A842930DF069F902ABE6
:100F30000F2822AD03EB0006286007D900222946BE
:100F400042A80AF049F92B6842904493324602A91C
:100F500042980AF06DF92B68429A43930021D154CC
:100F600004F5527AD4F84C73564657B107F1100085
:100F700042A90AF06BF90028AABF3E46FF68BF6885
:100F8000F3E7B24508D006F1100142A80AF05EF975
:100F900036EA200628BF564642A80AF041F95645CF
:100FA00027D000217C2223A829600CF02BFD736B35
:100FB0002BB9164916484FF4FD7205F07DFB1B68EE
:100FC0002A4612A906F1280098472B788BB1114ABE
:100FD000009502AB4FF4807142A805F04EFAE56926
:100FE00042A80DF00DF92B6802461B6942A928465C
:100FF0009847C4F84093D4F8403383F80080D4F87D
:101000004033013367E700BF4C5901088859010894
:10101000935901089F590108CB68C3600BB15B6805
:1010200018477047C3680BB19B681847704770B585
:1010300005460C468CB1E1682846FFF7F8FF04F13D
:101040002800A668FFF7EEFF04F110000AF0E8F8A8
:10105000204606F0A7F83446ECE770BD10B5074B04
:10106000D0F84C130360044600F55170FFF7DFFF22
:10107000204601F02BFF204610BD00BFD0590108CB
:1010800010B50446FFF7EAFF20464FF4587106F00A
:101090008BF8204610BD2DE9F047074638200D4655
:1010A0001646984606F06AF805F11001044610301D
:1010B0000AF014F905F1280104F12800FFF7ACFF4C
:1010C0002B78E96823700023C4E90233666029B1F4
:1010D000434622463846FFF7DEFFE060AE68A14691
:1010E0004FF0000A0EB3382006F048F806F1100160
:1010F000054610300AF0F2F806F1280105F1280043
:10110000FFF78AFF33782B70C5E902AAC9F80850A7
:10111000C5F80490F16829B143462A463846FFF7DE
:10112000BAFFE860B668A946DCE72046BDE8F0876C
:101130007FB504460023164600220D4601F0B8FE96
:10114000324B2360324BE561236204F1240104F247
:101150002310002201F8012B8842FBD1FE21C4F8A4
:101160002421C4F83031C4F8281104F59A73C4F866
:101170002C21002504F2332203F8015B9342FBD1BA
:10118000FE23C4F83452C4F8383204F510734FF417
:1011900080720021C4F83C5218460CF033FCB16850
:1011A000C4F8400304F55272C4E9D352C4E9D5250A
:1011B00004F5517084F84853B1B16B460090FFF7C5
:1011C0006AFF03461A469B68002BFBD1C4F85023E4
:1011D00003461A46DB68002BFBD17369C4F854231D
:1011E000C4F85833C4F84C030A4BE0690393002257
:1011F000094B019369460292009403F0F5FF68469B
:10120000FFF710FF204604B070BD00BFD0590108A1
:10121000B4590108BC590108DD0D0008036B8B426D
:1012200005DC406B8842B4BF0020012070470020DD
:101230007047018D07EE901AF8EE677A043017EECA
:10124000901A03F0A3BE00002DE9F04105461E46AA
:10125000184B45F8043B04461746284603F0F4FEB5
:10126000C4E90C7640F2D353134E23854FF0140893
:101270006623A385314684F82A80642204F138006D
:101280000CF0BEFA6422B11804F19C000CF0B8FA1C
:10129000642206F1C80104F580700CF0B1FA4146F1
:1012A000284603F081FE2846218D03F099FE204652
:1012B000BDE8F081145B0108E059010810B5044B4A
:1012C000044640F8043B03F0DDFE204610BD00BF9D
:1012D000145B0108F0B510688842DDE9055722DB90
:1012E0001868884202DCB5F90000F0BD0124BC4258
:1012F00019DA53F824608E424FEA840010DC04F1BE
:101300008044013C53F8242055F824702B58B01A1F
:10131000DB1B93FBF0F3881A13FB007000B2E4E7C9
:101320000134E4B2E3E707F18040013852F820408D
:10133000A14202DB35F92000D7E753F8203099426B
:10134000F8DD0124A74213DD52F8240081424FEA60
:1013500084030ADC04F18044013CEB5855F8247006
:1013600052F82420DB1B801AD3E70134E4B2E9E70A
:101370004FF0FF30B9E737B51923019300F58073BB
:1013800004460D46009300F1380200F19C034942E7
:10139000FFF7A0FF218DA0856843642590FBF5F53C
:1013A000201D294403B0BDE8304003F019BE436B53
:1013B0008B4205DC806B8842B4BF0020012070475F
:1013C000002070472DE9F04105461E46214B45F8A7
:1013D000043B04462846904603F036FE1E4BA362AB
:1013E00040F26D73C4E90C381C4BA66393E8070008
:1013F000142704F13C0684F82C7086E8070003F1FA
:101400000C0207CA04F1480686E8070003F1180237
:1014100007CA243304F1540686E8070093E807005E
:1014200004F1600686E807003946284603F0BCFD53
:101430004FF47A71284603F0D3FD0A2005F064FFCB
:10144000A16A6423284691FBF3F103F0C9FD20460D
:10145000BDE8F081585B010861570200205B01087C
:1014600010B5044B044640F8043B03F00BFE204645
:1014700010BD00BF585B01082DE9F0411968914289
:10148000DDE906C4DDE9085632DBDCF800109142E4
:1014900004DC236803602B68436024E00121B1422F
:1014A00026DA5CF8218090454FEA81071DDC01F1C6
:1014B000804101395CF8213054F821E0A8EB0306A3
:1014C000A2EB030C55F82110E359EA59A3EB0E03E4
:1014D000521A93FBF6F392FBF6F20CFB03E30CFBC0
:1014E0000212C0E90032BDE8F0810131C9B2D6E78D
:1014F00006F18041013953F82170974205DC54F818
:101500002130036055F82130C6E75CF8217097421E
:10151000F5DA0121B14212DA53F821C094454FEABD
:10152000810709DB01F18041013953F8213054F87A
:1015300021E0ACEB0306C3E70131C9B2EAE74FF0A3
:10154000FF330360A8E7036B806A59434FF47A7353
:1015500091FBF3F1642390FBF3F00844704730B53E
:1015600087B00323039300F16003029300F1540357
:10157000019300F1480304460A460D4600930146D4
:1015800000F13C0304A8FFF777FF049B2363059B4E
:10159000A36229462046FFF7D6FF0146201D07B06B
:1015A000BDE8304003F01CBD10B5034B036004469A
:1015B00003F064FE204610BD70620108A0F1E40053
:1015C000F2E700BF00F1080373B5044603600D465F
:1015D000E1B108460CF014FE0F2805EB000601905F
:1015E00007D9002201A9204609F0F6FD019B2060E1
:1015F000A36020683246294609F01AFE019B226842
:10160000636000212046D15402B070BD014809F04A
:10161000B3FD00BF605B010870B4D0E90134056818
:10162000661005EB6400E40744BFAC59E35870BC96
:10163000184770B4D0E901340568661005EB640002
:10164000E40744BFAC59E35870BC184770B4D0E904
:1016500001340568661005EB6400E40744BFAC592B
:10166000E35870BC184770B4D0E9013405686610BF
:1016700005EB6400E40744BFAC59E35870BC18475D
:1016800070B4D0E901340568661005EB6400E40726
:1016900044BFAC59E35870BC184770B4D0E901346A
:1016A0000568661005EB6400E40744BFAC59E358D5
:1016B00070BC184770B4D0E901340568661005EBBA
:1016C0006400E40744BFAC59E35870BC184738B510
:1016D0000546382005F052FD29460446103009F031
:1016E000FDFD04F1280005F11801FFF795FC2046E7
:1016F00038BD000070B5144C144D154E1549042228
:10170000204603F0B7FF29461322204603F0B2FF1C
:1017100031461322204603F0ADFF0F491322204625
:1017200003F0A8FF31461322204603F0A3FF294609
:101730001322204603F09EFF08490222204603F0B0
:1017400099FF002070BD00BFF80F00208F5B0108DB
:10175000A35B01088A5B0108B75B01088C5B010889
:1017600038B5FFF7C7FF60B9064D074C2B7823B19A
:10177000C82005F0C9FD07F0C7F9204601F034FC88
:10178000F4E738BD7C0D002010160020F8B50546A2
:10179000064655F8044B8CB90D4F386818B14FF018
:1017A000FF3102F01FFB346824B9284605F06CFDB8
:1017B0002C463560386808B102F02CFBAC4204D0EE
:1017C000044905488B2204F077FF2046F8BD00BF8E
:1017D00078300020F95B0108085C010808B503486F
:1017E000FFF7D4FFBDE8084005F056BDDC1D002022
:1017F00008B50348FFF7CAFFBDE8084005F06ABD19
:10180000DC1D002038B50546064B45F8043B044670
:10181000FFF7E4FF284603F07BFF2046FFF7E8FFD1
:10182000204638BD805C010810B50446FFF7EAFF8A
:101830002046542105F0B8FC204610BD10B586B0F6
:101840000446684680E80C0006A800E90C000391F5
:1018500010E90700034BE36084E80700204606B068
:1018600010BD00BFD85C010810B581680446FFF7C1
:10187000DEFB204610BD08B509F0E8FCC00F08BD2E
:101880002DE9F0418D6804460F4690460E1D01205B
:101890005DB105F110014046FFF7EDFF18B1AB68EF
:1018A0002E461D46F4E7EB68FAE7A0B1FB68B342A9
:1018B00004D1256066602046BDE8F081304609F01D
:1018C0008DFB0546414605F11000FFF7D4FF20B11E
:1018D00000232360EEE73546F4E7C4E90050EAE769
:1018E0002DE9F04385B06B4600F1040883E806005B
:1018F0000023C0E90238C0E904834FF028090446F8
:101900000D46037109FB0219A9452CD0636933B157
:101910002669294606F11000FFF7ADFF00BB2A46F5
:10192000214602A8FFF7ACFFDDE90236A6B1ABB94C
:10193000B04513D006F110012846FFF79CFF07467B
:101940002846FFF7C4FE434601463246384609F0B2
:1019500047FB6369013363612835D5E70127EFE76A
:10196000002EE5D1F8E7204605B0BDE8F083000081
:101970002DE9F04FBD4DDFF8C093DFF8C0A3DFF8CD
:10198000C0B3DFF8C083ADF5197D4FF4E1332846CD
:101990000322022134AC03F0ABFE2846B44AB54919
:1019A00005F0CCF91C22002120460CF02BF827462C
:1019B0000521204603F01BFF0FCF6E460FC697E8A8
:1019C0000700002386E80700AB4EAC48AC4F4FF44D
:1019D000FA7200F05DFDAB49A54AA84805F0AEF9E2
:1019E000002341F28832304600F0D6FCA04AA649D6
:1019F000304605F0A3F90421A44A204603F020F95B
:101A00000023CDE900454FF47A72484600F07CFF90
:101A10002046FFF7F7FE964A9D49484605F08EF9A5
:101A200021219A4A204603F00BF9CDE90045002315
:101A300040F6B832504601F0B9F92046FFF7E2FE11
:101A400094498B4A504605F079F9192318220095DC
:101A5000CDE9013290480023962200F0A9FE844A85
:101A60008E498D4805F06AF94FF4FA738C4A1321B8
:101A70005846FFF7E9FB7E4A8A49584605F05EF969
:101A8000FA236FF0F90215213846FFF79BFC8649CF
:101A9000774A384605F052F90095CDE9017B0023DD
:101AA00032224046FEF758FD8049714A404605F013
:101AB00045F90095002341F288327D4801F014F980
:101AC0006B4A7C497A4805F039F9794B724A7A4871
:101AD000CDF800A03146CDE901834B46FEF7F6FB79
:101AE0007649634A744805F029F9734A0092002345
:101AF000CDE9015ACDE903966422714801F08CF8D2
:101B00005B4A70496E4805F019F90F216E48FEF7DF
:101B1000BDFB574A6D496C48002605F00FF96C4B28
:101B20006660236094E80C00414630A8FFF786FE0B
:101B300068492046FFF746FD30A93AA8FFF76CFA3E
:101B4000654B28AFC7E90036414697E80C002CA842
:101B5000FFF774FE61493EA8FFF734FD2CA944A8A5
:101B6000FFF75AFA5E4B0DF1900BCBE90036414678
:101B70009BE80C003846FFF761FE5A4948A8FFF77A
:101B800021FD39464EA8FFF747FA574B20ADC5E96E
:101B90000036414695E80C005846FFF74FFE534982
:101BA00052A8FFF70FFD594658A8FFF735FA504BDA
:101BB000EB60504B5049C5F800A0C5E901365CA860
:101BC000FFF700FD294662A8FFF726FA4B4B1F934B
:101BD0004B4B4C49CDF8709066A8CDE91D36FFF708
:101BE000F1FC1CA96CA8FFF717FA474B2A491B9375
:101BF000464B189170A84649CDE91936FFF7E2FC2B
:101C000018A976A8FFF708FA424B1793424B2A4AC5
:101C1000424914927AA8CDE91536FFF7D3FC14A9EE
:101C200080A8FFF7F9F93E4B13933E4B264A3E49F5
:101C3000109284A8CDE91136FFF7C4FC10A98AA838
:101C4000FFF7EAF9394B0F93194B0C93384B39498D
:101C50008EA8CDE90D36FFF7B5FC0CA994A8FFF7C7
:101C6000DBF90A230B9308AB00936DE0F80F00201B
:101C700098010020A9150008D80D0020280E00208A
:101C8000A415002069240008791E00080000C07F08
:101C90004D2A0008712E0008600E0020E92400087B
:101CA0000CFEFFFFBD120008611400086D0400085F
:101CB000980F0020492C0008400F0020E702000880
:101CC000600F00207D2A0008200E00208F020008EF
:101CD0008D0500082B5C0108ED050008315C01084A
:101CE0004D060008375C0108990600083D5C0108B4
:101CF000CC5C0108E52D0008415C0108C05C0108CE
:101D000049290008495C0108B45C010865280008FD
:101D1000515C0108A85C0108E9020008555C010853
:101D20009C5C010891020008585C0108905C010865
:101D3000092D0008685C0108C00E00206016002014
:101D400040140020C00F00200A940AAA06CA38488E
:101D500009ABFFF7C5FD98AE283E06F11800FFF766
:101D600061F9304609F05CFAA642F5D10CA8FFF7FC
:101D700059F910A8FFF756F914A8FFF753F918A856
:101D8000FFF750F91CA8FFF74DF92846FFF74AF96D
:101D90005846FFF747F93846FFF744F9244D2CA879
:101DA000FFF740F930A8FFF73DF9224A22492846BB
:101DB00004F0C4FFA968002335AAC4E903222371F3
:101DC000A360636199B130AB20463094FFF763F9AB
:101DD00003461A469B68002BFBD1E26003461A4675
:101DE000DB68002BFBD16B6922616361A060224636
:101DF00012491348FFF79CF9A1682046FFF717F92D
:101E00000C4A10490E4804F099FF0F4B0F49104837
:101E1000D3E90023CDE90023092201F0B9F8054AEE
:101E20000C490B4804F08AFF0DF5197DBDE8F08FD1
:101E3000C00D00209801002069180008F80F00204C
:101E4000E01000205D100008E85C0108A0010020FF
:101E500010160020452F000810B50446FFF7A4FB1C
:101E60002046E82105F0A0F9204610BDA0F1E400CD
:101E7000F2E7FFF77DBD000010B5054B044640F8C2
:101E80001C3B03F0FFF8204601F020F8204610BD6F
:101E9000005D010810B50446FFF7EEFF204648211B
:101EA00005F082F9204610BD437E37B50446002B6D
:101EB0006ED090F84430012B40F08F8190F8403084
:101EC0001C2B00F27F81DFE813F01D00420065004B
:101ED000EC00650083008C00A70028010001A7002A
:101EE000BA00C200D4006500EC00D400DC00E400BD
:101EF000EC000001140114016500280128013C01D7
:101F00004F01620190F8423093B904F11C004FF484
:101F1000FD61019003F056F84FF47D71019803F0D4
:101F20005FF8012384F84230002384F841302FE029
:101F300090F84130092B40F2218200211C3003F03F
:101F40004FF8002384F8413084F842301BE090F8C9
:101F5000422090F84130002A40F010820B2B40F2D2
:101F60000D8204F11C004FF47D71019003F02AF8FA
:101F70004FF4FD71019803F033F8012384F84230E7
:101F8000002384F8413094F84030013384F8403025
:101F900003B030BD90F8422090F841305AB1092B7F
:101FA00040F2EC81002104F11C0003F019F8002339
:101FB00084F84230E5E70B2B40F2E08104F11C008D
:101FC00040F24751019002F0FDFF40F2A321D1E71A
:101FD00090F8422090F841300AB10B2BE0E7132B28
:101FE00067E090F8425090F841300DB10E2BD7E7E2
:101FF000182B40F2C3811C304FF4EF61019002F0C6
:10200000E1FF4FF46F71019802F0EAFF012384F8B9
:10201000423084F84150B6E790F8422090F84130C1
:10202000002ABCD10B2B40F2A98104F11C0040F224
:10203000BB31019002F0C6FF40F2DD119AE790F843
:10204000422090F84130002AC7D1132B6DE090F860
:10205000425090F84130002DC8D1182B40F28E81AB
:102060001C304FF4FD61019002F0ACFF4FF47D7124
:10207000C9E790F8422090F84130002A3FF46EAF53
:102080008DE790F8422090F84130002AA5D1132B1B
:1020900092E790F8422090F84130002AA6D1182B00
:1020A00007E090F8422090F84130002A7FF477AFA3
:1020B0000B2B40F2638104F11C0040F24761019058
:1020C00002F080FF40F2233154E790F8422090F86C
:1020D0004130002A7FF463AF0B2B40F24F8104F1B3
:1020E0001C0040F2ED51019002F06CFF40F2F6212D
:1020F00040E790F8422090F84130002A7FF44FAF3B
:102100000B2B40F23B8104F11C004FF4B3610190B2
:1021100002F058FF4FF433712CE790F8422090F80A
:102120004130002A7FF43BAF0B2B40F2278104F1B2
:102130001C0040F2FB41019002F044FF40F27D217F
:1021400018E790F8425090F84130002D7FF427AF07
:102150000B2B40F213811C3040F2B341019002F08E
:1021600031FF40F259214EE790F8425090F841304B
:10217000002D7FF414AF0B2B40F200811C304FF484
:102180008E61019002F01EFF4FF40E713BE790F854
:10219000425090F84130002D7FF401AF0B2B40F2FC
:1021A000ED801C304FF47D71019002F00BFF01981F
:1021B0004FF4FD7102F014FF0123A4F8405084F89D
:1021C0004230E5E60021A0F8401080F842101C30B3
:1021D00003B0BDE8304002F003BF022B6DD190F890
:1021E0004030042B3FF6D4AEDFE803F00312213079
:1021F000490094F84230002B40F0B88004F11C00F4
:1022000040F6E861019002F0DDFE40F2747185E66F
:1022100094F84230002B40F0A98004F11C0040F6F5
:102220004951019002F0CEFE40F2A46176E694F8A6
:102230004230002B40F09A8004F11C0040F6D63169
:10224000019002F0BFFE40F2EB5167E690F8423099
:102250004BB904F11C0040F6F711019002F0B2FEF8
:1022600040F2FB415AE694F84130092B40F2868057
:10227000002104F11C0002F0B3FE002364E604F127
:102280001C0002210025019002F09CFE0198012112
:1022900002F0A6FE0198A4F8405084F84250294666
:1022A00002F09EFE84F8445041F28831204600F04E
:1022B0000EFE41F2883363836AE6032B45D190F822
:1022C0004030062B3FF664AE01A252F823F000BF67
:1022D0002F22000811220008F3210008ED22000837
:1022E00017230008312300087F22000890F842508D
:1022F000002DB8D11C304FF47D61019002F062FED8
:102300004FF4FD61019802F06BFE012384F8423026
:1023100084F841503CE690F84250002DA3D11C3087
:1023200041F2C111019002F04DFE4FF40E61E9E758
:1023300090F84250002D96D11C3041F2EE310190C0
:1023400002F040FE40F6F711DCE7042B7FF420AEEC
:1023500090F8401001290CD0022911D000297FF4F7
:1023600017AE90F84230002B3FF473AF94F8413031
:1023700015E690F84230002BF8D1C6E50133D4E5DC
:102380001C30019002F01EFE0198012102F028FE8F
:10239000002384F8443087E770B5044616460025CC
:1023A00000F086FD064B236065766683172104F1F5
:1023B0001C0002F049FE256484F84450204670BD9C
:1023C000005D0108F0B50D4685B021490446174669
:1023D00000260DF10F0228468DF80F600BF092FCDD
:1023E00028460AF083F8C2B2931B18BF0123637614
:1023F00017498DF80F20384604F02EF89DF80F305D
:1024000084F844309BB904F11C000221019002F0D1
:10241000D9FD0198012102F0E3FD41F28831204607
:1024200000F055FD41F28833638305B0F0BD013BF8
:10243000032BFAD8204626640A2100F048FD0A231F
:102440006383314604F11C0002F0CAFDEDE700BFD2
:10245000F05C0108036A1A68C3691A4216BF826AEF
:10246000426A1B041360704710B5034B03600446B7
:1024700000F02CFD204610BD185D010810B5044683
:10248000FFF7F2FF2046382104F08EFE204610BDF3
:1024900070B50646344600F00BFD04AD064B44F81B
:1024A0001C3B0FCD0FC495E8070084E80700736A52
:1024B000F2691A60304670BD185D0108064B8362F0
:1024C000064BC362064B0363522380F825304FF45A
:1024D000967004F019BF00BF2D2500086D25000877
:1024E000E524000804F010BF38B5094B094D03601E
:1024F00004460220FEF70AFC286820B10368DB6866
:10250000984700232B60204600F0E0FC204638BDB1
:10251000805D0108D816002010B50446FFF7E4FFDF
:102520002046602104F040FE204610BD7FB502AC7D
:102530008DF80810D61811462246B14204F1010464
:1025400003D011F8015B2570F7E7002100910146E7
:1025500005480133006802F013FC003818BF012061
:10256000404204B070BD00BFD8160020F0B587B05F
:102570000024CDE9044416468DF80F108DF8101094
:1025800005461F46214604AACBB29F4203D98B5C65
:1025900073540131F8E700230C4C009320680123A9
:1025A0000DF10F02294602F0EBFB60B900902068A4
:1025B0003B463246294602F002FC003818BF012093
:1025C000404207B0F0BD4FF0FF30FAE7D8160020C8
:1025D000F0B590F83430A9B00446002B00F0C68066
:1025E00000230CA8ADF83030ADF83230ADF83430FF
:1025F000ADF83630ADF83830ADF83A30FEF768F95E
:10260000002840F0B3800DF13200FEF7B9F9002840
:1026100040F0AC800DA8FEF787F9002840F0A680B6
:102620000DF13600BDF93060BDF93250BDF934709E
:10263000FEF7D2F9002840F099800EA8FEF7F8F9CD
:10264000002840F093800DF13A00FEF71DFA0028B3
:1026500040F08C80BDF93610BDF9383001EB8101B6
:10266000490001F16E0203EB8303DC2A4FEA4303C6
:102670007ED803F16E02DC2A7AD894F84830013310
:10268000DBB20A2B84F8483005D10023C4E90F33AC
:10269000636484F848304FF47A7116FB01F0002827
:1026A00015FB01F14FF47A7217FB02F2B8BF0F303D
:1026B0000029B8BF0F31002A656CB8BF0F3242F352
:1026C0000F174FF47A72D4E90FC695FBF2FE97FB11
:1026D000F2F302FB1E55002DB8BF6D42CDE909E5AE
:1026E00096FBF2F502FB1566002EB8BF7642CDE9E7
:1026F00007569CFBF2F602FB16C5002DB8BF6D42D3
:1027000040F30F10CDE9056590FBF2F502FB1500D3
:1027100000B20028B8BF404241F30F1180B20490CC
:1027200091FBF2F002FB101109B202FB13720029B7
:1027300012B2B8BF4942002AB8BF524289B200B2B1
:1027400092B22DB21BB202910190642100920395C6
:10275000164A0FA803F091FEA46B0FA80BF050FDD2
:10276000236802461B690FA92046984729B0F0BD8F
:10277000B4F85020E06BBDF93AC04FF47A7E514373
:1027800091FBFEF10144E163216C534393FBFEF3A3
:102790000B4402FB0CF223640A235343626C93FB49
:1027A000FEF313446364002373E700BF285D010850
:1027B000F7B504461F46164600F07AFB264B089AEA
:1027C0002360002F4FF0000308BF962EC4E90E23AC
:1027D000C4E91033C4E9146784F8343084F848300D
:1027E00007D29621204600F072FB96220023C4E90E
:1027F00014234FF4847004F0C1FCBDF92820BDF906
:102800002410054602F086FB144B15491D6028462E
:1028100002F0A3FA4FF4967004F076FD2046FFF71D
:102820004DFE04F11C00FDF79BFF0020FEF76EFA41
:102830000C20FEF7A9F900250DF107008DF80750CF
:10284000FEF74EF99DF8073013B12846FEF716FA49
:10285000204603B0F0BD00BF805D0108D8160020FF
:10286000801A060073B50D46002313498DF8073012
:102870000646144628460DF107020BF043FA284697
:1028800009F034FE0D4A1278C3B20F2A8DF80730D2
:1028900001D01E2A0DD1003B094A0A4918BF012365
:1028A00086F834301370204602B0BDE870400BF05B
:1028B00035BC0549F7E700BFF05C0108B80D002002
:1028C0007E0D00204E580108615D010810B590F89A
:1028D000703086B0044683B1094B0A4A1B68182140
:1028E000684603F0CAFD646F68460BF089FC2368F4
:1028F00002461B6969462046984706B010BD00BFD6
:10290000840D0020945D0108F8B50446069F164624
:102910001D4600F0CDFA0A4B23600A4BE3614C22BE
:10292000391D04F120000AF06BFF3B6DE3660023C4
:1029300084F87030079BE567C4E91D362046F8BD72
:10294000B05D0108805C010873B50D460023134992
:102950008DF807300646144628460DF107020BF0A5
:10296000D1F9284609F0C2FD0D4A1278C3B20F2AE8
:102970008DF8073001D01E2A0DD1003B094A0A49C3
:1029800018BF012386F870301370204602B0BDE8EE
:1029900070400BF0C3BB0549F7E700BFF05C0108CE
:1029A000B80D00207F0D00204E580108615D010820
:1029B000F8B51C300E4602F031F9FA2358434FF4B3
:1029C0000973B0FBF3F0194B194A1860194B1778CB
:1029D0001D78B5FBF7F107FB1151174CC9B2013552
:1029E0001D7024F8110000231A46D9B28F4204D971
:1029F00034F8021B01330A44F7E7104B104D1978E5
:102A00002C68B2FBF7F2C1F57A734A4304FB032347
:102A10004FF47A72B3FBF2F30A4A2B60136818443E
:102A2000094B1060196831441960F8BDAC0D0020E5
:102A30009D010020880D00208C0D00209C010020AD
:102A4000840D0020A80D0020B00D002010B5054B0E
:102A5000044640F81C3BFEF7D5FE204600F036FA4F
:102A6000204610BDB05D010810B50446FFF7EEFF2B
:102A70002046802104F098FB204610BD10B5034B82
:102A80000360044600F022FA204610BDF85D0108FC
:102A900010B50446FFF7F2FF2046382104F084FB0E
:102AA000204610BDF0B504468BB0406A4B4E00F096
:102AB000CDF9218EA06AFFF77BFF494B49481B885F
:102AC00041F27C52002B08BF1346474A1188474AFF
:102AD0001568474A1268B2FBF5F2028041F6BC3035
:102AE00000FB03F24B4392FBF6F242F2D006B3FB3B
:102AF000F6F3404E1A444FF461674FF47A73368808
:102B00005A43B2FBF6F27A43B2FBF3F23A4B3B4E36
:102B10001A6000233370A1F5DD531D3B632B34D8BD
:102B200094F8323036480133DBB2FA2B84F8323075
:102B30000178034625D125B309BBB2FBF7F3012188
:102B400007FB13223C270170B2FBF7F107FB1122B0
:102B5000CDE90012DBB22B4A162104A803F08DFC4C
:102B6000256A04A80BF04CFB2B68024604A91B69DC
:102B7000284698472449E06A04AAFFF723FC0BB0D3
:102B8000F0BD81F001011970F9E78142F7D894F89E
:102B900033300133DBB20F2B84F83330EFD11B49D4
:102BA00004A80BF0BBFA04A80BF02AFB256A2B68DB
:102BB00002462846164D1B6904A998472A7822B177
:102BC0001449E06903AAFDF78FFBC82004F09CFBC1
:102BD0000123337000232B70D1E700BF30DFFFFFEC
:102BE000A20D00208A0D0020A40D0020B00D0020B1
:102BF000A80D0020840D0020B40D00207C0D0020C5
:102C0000810D0020C05D01084E580108DC5D0108FF
:102C1000B80D00209269010838B50446154600F049
:102C200047F9084B2360049BE361059B2362069BE5
:102C30006362079BA362089BE36200232586638689
:102C4000204638BDF85D010810B5034B036004460B
:102C500000F03CF9204610BD405E010810B5044666
:102C6000FFF7F2FF2046282104F09EFA204610BD0F
:102C700030B590F820309DB00446002B30D008A825
:102C800003F068FC04A804F091FA059B08990B98DE
:102C900042F2107251435A43B1FBF0F1069BB2FB72
:102CA000F3F288B292B26421B0FBF1F3B2FBF1F51A
:102CB00001FB152201FB130192B289B2CDE9015249
:102CC0000091084A32210FA803F0D7FBE4690FA84E
:102CD0000BF096FA236802461B690FA92046984715
:102CE0001DB030BD085E010810B5044600F0E0F8E4
:102CF000044B2360029BE361002384F820302046CC
:102D000010BD00BF405E010873B50D460023134996
:102D10008DF807300646144628460DF107020AF0E2
:102D2000F1FF284609F0E2FB0D4A1278C3B20F2AE0
:102D30008DF8073001D01E2A0DD1003B094A0A49FF
:102D400018BF012386F820301370204602B0BDE87A
:102D500070400BF0E3B90549F7E700BFF05C0108EC
:102D6000B80D0020800D00204E580108615D01085B
:102D700010B590F87430C0B004468BB1094B0A4AC4
:102D80001B884FF48071684603F077FB246F684618
:102D90000BF036FA236802461B69694620469847BD
:102DA00040B010BDA40D0020505E010838B50446A7
:102DB000049D00F07DF8094B2360094BE3614C2230
:102DC000291D04F120000AF01BFD2B6DE366059B15
:102DD0002367002384F87430204638BD685E0108FC
:102DE000805C010873B50D46002313498DF8073048
:102DF0000646144628460DF107020AF083FF2846CE
:102E000009F074FB0D4A1278C3B20F2A8DF807300F
:102E100001D01E2A0DD1003B094A0A4918BF0123DF
:102E200086F874301370204602B0BDE870400BF095
:102E300075B90549F7E700BFF05C0108B80D00203F
:102E40007D0D00204E580108615D010808B51C3059
:102E500001F0E4FE4FF47A71002341F6E112A0FB89
:102E6000010111F0C7FB014B188008BDA40D002023
:102E700010B5054B044640F81C3BFEF7C3FC20464A
:102E800000F024F8204610BD685E010810B5044625
:102E9000FFF7EEFF2046782104F086F9204610BDAA
:102EA000027E22B103680022DB6802761847704771
:102EB00010B5C0E9022300220023C0E90423024C1C
:102EC00004600023037610BD805E01087047002374
:102ED000C36000220023C0E904238160704730B53D
:102EE000D0E904144A1C44F10003D0E90245A2428F
:102EF000C0E90423AB4105DB00230022C0E9042321
:102F00000123037630BD38B504460025227AEBB2A2
:102F10009A4206D9626852F82300FFF7E0FF0135B4
:102F2000F4E738BD10B4D0E901320168541001EB68
:102F30006200D20748BF0A595DF8044B48BFD35816
:102F40001847000038B505460A4B45F8103B0446C3
:102F5000284602F0A5FA084B2361284602F0A0FAA1
:102F600004F13800FEF75EF8284602F02FFB2046F9
:102F700038BD00BFA45E01085862010810B50446C0
:102F8000FFF7E0FF2046502104F00EF9204610BD67
:102F9000F0B5124B027200F1100685B0C0E90031A5
:102FA00004463046DDE90A5702F0A8FA0C4B0393B9
:102FB0000C4B01934FF47A7100230293A5FB01237C
:102FC00001FB073330466946009402F0B7FA6846C1
:102FD000FEF728F8204605B0F0BD00BFA45E01084A
:102FE000905E0108072F000838B504460025227AB4
:102FF000EBB29A4207D9626852F8230003689B68D3
:1030000098470135F3E738BD1EF0040F0CBFEFF30E
:103010000880EFF30980816911F8021C002932D180
:1030200001B590E80F10E047BDE800508CE80300C0
:10303000244B93E80600914208BF70471A6041B9DB
:103040001EF0100F10D1204B186820F001001860FE
:103050000AE02CE9F00F1EF0100F08BF2CED108ACB
:1030600081F822E0C1F838C0906B92F8221061F02C
:10307000FF0E1EF0100F08BFB0EC108AB0E8F00F82
:1030800080F309887047114A13689942FAD801B54C
:1030900052F821C00FC8E047BDE80050CCF800004E
:1030A000704701B500F018FFBDE80140EFF3098C4F
:1030B000BEE701B500F0D4FEBDE80140EFF3098C96
:1030C000B6E70000D801002034EF00E0745F01088B
:1030D00008B5014630B96FF0030000F02AF86FF030
:1030E000030008BD132001F0ADFA30B94FF0FF30F6
:1030F00000F01FF84FF0FF30F3E70020F1E7000089
:1031000008B5EFF305832BB9EFF3108313B9EFF391
:10311000118333B16FF0050000F00BF86FF005007C
:1031200008BDDFF808C000DFFAE700BFD1300008B3
:1031300070477047EFF310832BB9EFF3118000381D
:1031400018BF0120704701207047000008B5094BE7
:103150001A7A022A08D0032A0AD04FF0FF3001F071
:1031600023FD4FF0FF3002E003221A72002008BD59
:103170000120FCE7C401002008B5094B1A7A022A95
:103180000CD0032A03D102221A72012008BD4FF08D
:10319000FF3001F009FD4FF0FF30F7E70020F5E7C1
:1031A000C401002070B5464C237A012B00F08580C5
:1031B00033B14FF0FF3001F0F7FC4FF0FF3070BD3E
:1031C000404DD5E90B61EB68E3652B8AA4F85430D8
:1031D0003046AB68236400F033F908B1C4F880606E
:1031E000D5E90561304600F02BF908B9D4F88060C4
:1031F0006667D5E90761304600F022F908B9D4F8CE
:103200008060A667D5E90961304600F019F908B970
:10321000D4F88060E6676E6B3EB1D6E90223316870
:10322000304600F07CF9C4F88460AE6B3EB1D6E95C
:1032300002233168304600F072F9C4F88860EE6B02
:103240003EB1D6E902233168304600F068F9C4F88F
:103250008C602E6C3EB1D6E902233168304600F016
:103260005EF9C4F890606E6C3EB1D6E90223316815
:10327000304600F054F9C4F89460AE6C3EB1D6E923
:1032800002233168304600F04AF9C4F89860EE6CC9
:103290003EB1D6E902233168304600F040F9C4F867
:1032A0009C602D6D3DB1D5E902232968284600F0C8
:1032B00036F9C4F8A0500123237200207FE700BF35
:1032C000C4010020045F010870B5254D2B7A012B45
:1032D00007D06FF0060001F067FC4FF0FF34204686
:1032E00070BD01F0E3F910B94FF0FF30F3E71D4A6C
:1032F0001D4E1E497068FF2382F8223092F822305A
:10330000D26863F0FF03DB4314BFB3FA83F32023D7
:10331000C3F12003C2F30222934298BF531CFE2242
:1033200002FA03F30F4ADBB2D37701F0C5FA044681
:103330000028D9D101F0FCFA286101F0DDFA0C482F
:1033400000F0A2FF01F006F83368DB074CBF022350
:10335000032383F31488BFF36F8F02232B72BEE71E
:10336000C401002000ED00E0045F0108B330000854
:10337000E0010020704738B504460D46FFF7D8FE3F
:1033800029462046BDE8384001F0D0BB08B5FFF71C
:10339000F1FFEFF3058333B16FF0050001F004FC9A
:1033A0006FF0050008BDFFF7C5FE0028F4D1DFF877
:1033B00008C000DFF6E700BFA531000808B5EFF34D
:1033C000058333B16FF0050001F0EEFB6FF00500EF
:1033D00008BDFFF7AFFE0028F4D1DFF808C000DF1A
:1033E000F6E700BFC932000808B5EFF3058333B133
:1033F0006FF0050001F0D8FB6FF0050008BDFFF786
:1034000099FE0028F4D1DFF808C000DFF6E700BF1E
:103410004D31000808B5EFF3058333B16FF00500B7
:1034200001F0C2FB6FF0050008BDFFF783FE002826
:10343000F4D1DFF808C000DFF6E700BF79310008FB
:1034400010B598B140EA010313F007030ED1172914
:103450000AD90160083910220C18846042600B50B0
:1034600081684A60C3600123184610BD0023FBE752
:10347000F0B578B399B132F003032BD10F3121F0BD
:10348000070700F108052B462D685C68E91A24F04F
:103490000304091B8F4204D929680029F3D1084687
:1034A000F0BD466804683E444660204408384168E0
:1034B0008E4288BF466058683A4318B95A6003F193
:1034C0000801ECE720F0030019181D504A6019604C
:1034D0000831E4E70021E2E730B590B1D9B1A1F1BC
:1034E000080500F108040022AC420BD151F8043C5D
:1034F00023F0030443681B1B436042B941F8042CCA
:10350000012030BD236822463BB11C46ECE751F850
:10351000083C1360F4E70846F3E71846F1E730B5D6
:10352000C0B189B1C2B1CBB10024C0E9014202FBF4
:1035300001F41D190160C36043610561184601393A
:1035400004D1A21A99500121084630BD85180560A2
:103550002846F4E70146F7E71146F5E71946F3E791
:1035600010B50346A8B100F1140252E8000F10B9DB
:10357000BFF32F8F04E0016842E8001404B1F4E7C0
:1035800038B1043353E8002F511C43E8001404B150
:10359000F8E710BD30B5F0B1C3688B421BD80369A2
:1035A0008B4218D900F114031A680A60BFF35F8FC9
:1035B00053E8002F0C689442F6D143E8001505B19A
:1035C000F2E7043050E8003F5A1E40E8002101B104
:1035D000F8E7002030BD6FF00300FBE7EFF3108346
:1035E0002BB9EFF31180003818BF0120704701207C
:1035F0007047036B30B5E3B1CD780024DA78AA4286
:103600000FD31A46C1E901248AB19160A4B1616067
:10361000283050E8003F5A1C40E8002101B1F8E78B
:1036200030BD5A681C46002AECD01346E6E7C1625A
:10363000ECE7C1E90133C1620163E9E7D1E9013295
:1036400023B19A608A681AB153607047C262F9E781
:1036500003637047F8B5877804468FB3C5680146A1
:103660000027284605F10C06FFF7E8FF27703046D3
:10367000FFF790FFAB68002B48D03046FFF770FF94
:103680000446002842D0284600F0FEFD3A46064691
:10369000394600F081FF304600F052FE6A6A8168C8
:1036A000064604F10C000AF0ABF8F9232370A7706A
:1036B000F368E37021462846BDE8F840FFF799BF5C
:1036C0008568AB68002BF5D05B78832BF2D1284658
:1036D00000F0DAFD3A460646394600F05DFF304616
:1036E00000F02EFE06466A6A806804F10C010AF0BA
:1036F00087F8F3680BB1E2781A7000232370214633
:1037000005F10C00BDE8F840FFF744BFF8BD00002C
:103710002DE9F0410C4617469846054618B1037846
:10372000FA2B00D141B928466FF0030101F04EFA9F
:103730006FF00300BDE8F0818368C3B15B78832B31
:1037400015D100F0A1FD01220646002100F024FF62
:10375000304600F0F5FD06466A6A806821460AF0A8
:103760004FF8F0680028E5D007700020E2E705F187
:103770000C00FFF7F5FE064670B121466A6A0C3070
:103780000AF03EF80024F9233370B470F770314624
:103790002846FFF72EFFE8E7B8F1000F10D04146AA
:1037A000932000F04FFF40B1074B2846596900F0C5
:1037B00059FDEFF30983C3E902476FF00100B9E750
:1037C0006FF00200B6E700BFC40100202DE9F84FFA
:1037D0008846074638B131B1B0FA80F3B1FA81F1C9
:1037E0000B441F2B06DC6FF00301002001F0EEF903
:1037F000002470E008F1030626F003060C3606FBF1
:1038000000F9F2B194683CB1A30702D1D368332B1D
:1038100005D86FF00801E8E7D368002BF9D1D2E9A9
:103820000453D2F800A03DB115F0030B01D1994526
:1038300054D96FF00901D8E7002BFAD11CB19B468F
:103840000CE092461546274BD3F8A000D8B1FFF7FD
:1038500087FE0446A0B14FF0010B35BB214B00227F
:10386000D86F4946FFF704FE0546C0B9BBF1000F0B
:1038700006D01C4BD3F8A000214658B1FFF78AFEB2
:103880006FF00401B1E7D3F8800001223421FFF783
:10389000EFFDDEE7D3F88000FFF71EFEF0E74A46B3
:1038A00000210AF0AFF84BF0020BFA23237000233B
:1038B000C4E90983C4E90B33A36032462B4684F87C
:1038C00002B0C4F804A0394604F10C00FFF727FE4B
:1038D000044B054A1A672046BDE8F88F002CE4D156
:1038E000B1E700BFC40100205536000810B500F153
:1038F000280353E8002F12B9BFF32F8F04E0511EA5
:1039000043E8001404B1F4E70AB9002010BDC06A0E
:1039100001230028F9D0821CD2E84F1FC2E8443F9F
:1039200004B1F9E711F0FF0FF0D08068F1E7000073
:103930002DE9F0410F4615469846044618B1037824
:10394000FA2B00D141B920466FF0030101F03EF996
:103950006FF00300BDE8F081FFF7C8FF06460028BE
:103960003AD001462046FFF769FE626A06F10C0173
:10397000384609F045FF0DB1F3782B70002504F1AE
:103980000C07357031463846FFF704FEA3680BB9C3
:103990000020DFE73846FFF7E3FD06460028F7D0B2
:1039A000204600F071FC29460746012200F0F4FD94
:1039B000384600F0C5FC626A8168074606F10C00D3
:1039C00009F01EFFF9233370B570FB68F3703146C0
:1039D0002046FFF70EFEDBE7B8F1000F10D041469E
:1039E000832000F02FFE40B1074B2046596900F0BC
:1039F00039FCEFF30983C3E902756FF00100A9E711
:103A00006FF00200A6E700BFC401002008B5064B16
:103A100008219A6ED86EFFF7D9FE044BD864B0FA2D
:103A200080F04009404208BD045F0108C401002045
:103A30002DE9F04106460F4690461C46EFF30583FC
:103A40004BB196B930466FF0030101F0BFF86FF04B
:103A50000300BDE8F081FFF7C1FD0028F1D1DFF8D8
:103A60004CC03046234600DFF3E73378FA2BE9D128
:103A7000002FE7D0002CE5D106F10C00FFF770FD18
:103A8000054680B1726A39460C3009F0B9FEF92357
:103A90002846C5E901762B70AC7085F8038000F0EC
:103AA00063FA2046D5E76FF00200D2E7113700082D
:103AB000F8B504460F4616461D46EFF3058343B19D
:103AC0008CB920466FF0030101F080F86FF003001D
:103AD000F8BDFFF783FD0028F2D1DFF848C020468B
:103AE0002B4600DFF4E72378FA2BEAD1002FE8D049
:103AF000002DE6D12046FFF7F9FE054670B100F132
:103B00000C01626A384609F07BFE0EB1EB78337027
:103B10002846EC6000F028FA0020D9E76FF0020098
:103B2000D6E700BF31390008EFF310832BB9EFF36C
:103B30001180003818BF0120704701207047000035
:103B400070B5A8B38468D0E900566CB114F00303D3
:103B500002D1C2681B2A1AD86FF00801002001F0B8
:103B60002FF80024204670BDC368002BF4D1124BFF
:103B7000D3F8940030B9D3F8800001221C21FFF75C
:103B800077FC01E0FFF7ECFC044660B10123F5226D
:103B9000A3700023C4E90233C4E904332270E67041
:103BA00065602376DEE76FF0040101F009F8D9E7DC
:103BB00005460646DBE700BFC4010020284B70B570
:103BC0005D6904460E4635B96FF0070100F0F8FF55
:103BD0004FF0FF3070BD10B10378F52B07D02046B1
:103BE0006FF0030100F0ECFF6FF00300F2E7037EDB
:103BF00053B9C0E90353EB6A436103B11861EC6246
:103C0000012323760020E5E7C278D1070DD5C168EE
:103C1000A9420AD1FF2B06D16FF00F0100F0D0FFAF
:103C20006FF00200D6E70133EBE7002EF8D09307E0
:103C30000AD5E06895F9203090F920209A4203DAFD
:103C400080F8203000F032FB3146532000F0FAFCBF
:103C500018B12946204600F005FB6FF00100B9E7D6
:103C6000C40100202E4B5A6970B5044632B96FF07A
:103C7000070100F0A5FF4FF0FF3070BD10B10378D1
:103C8000F52B07D020466FF0030100F099FF6FF08D
:103C90000300F2E7037E33B96FF00E0100F090FFEE
:103CA0006FF00200E9E7C168914202D06FF00D01A8
:103CB000F4E7013BDBB2037613BB43690BB1016947
:103CC00019612169F1B14B6192F92130D56ADDB9F1
:103CD00082F82030A36883B1204600F0D5FA06466A
:103CE0002A46294600F058FCF36A6361C4E903657B
:103CF00003B11C610123F4622376002000F032FB43
:103D00000020BAE7D362DFE7E978890706D5A9681A
:103D100021B191F920108B42B8BF0B466D69D6E7EF
:103D2000C40100202DE9F0410446002601270CB90A
:103D3000BDE8F081E378D4F814801B0712D5A3689E
:103D400026767BB1204600F09FFA002205461146F8
:103D500000F022FCEB6A6361C4E9035603B11C6105
:103D6000EC6227764446E2E710B4C3789B071DD582
:103D7000C06890F92120C36ADC78A40709D59C6843
:103D80008C4208BF8C6824B194F92040A242B8BF8D
:103D900022465B69002BEFD190F92030934205D089
:103DA00080F820205DF8044B00F080BA5DF8044BE9
:103DB0007047000008B50246EFF3058333B10020D9
:103DC0006FF0050100F0FCFE002008BDFFF7ACFE1F
:103DD0000028F4D1DFF808C0104600DFF5E700BF87
:103DE000413B000808B50246EFF305833BB110469E
:103DF0006FF0050100F0E4FE6FF0050008BDFFF76D
:103E000093FE0028F3D1DFF808C0104600DFF5E785
:103E1000BD3B000808B50246EFF305833BB11046F1
:103E20006FF0050100F0CCFE6FF0050008BDFFF754
:103E30007BFE0028F3D1DFF808C0104600DFF5E76D
:103E4000653C000810B5D0E85F3F5A1C914200D88D
:103E50000022C0E8542F04B1F5E798B210BD00006D
:103E600038B51C4C00F05EFDE3680133E36000F000
:103E700037FA002000F076FA236D03B19847226CE0
:103E800032B3A369E16B994203D0D969E36301B905
:103E9000DA61DA69C2B9237A022B19D1656ABDB138
:103EA000E36B95F9202093F920309A4210D12846EF
:103EB00000F0F3F9E06B00F00BFA284600F04AFA44
:103EC000236CE563EB6103E0013ADA61002AE2D09A
:103ED00038BD00BFC401002070B5224C04F1560566
:103EE00004F15A06B4F85410D5E85F3F13B9BFF394
:103EF0002F8F04E05A1EC5E8502F00B1F4E79BB2A3
:103F00005BB33046FFF79EFFE36D53F8200020B30C
:103F10000378F13B082BE5D801A252F823F000BF4B
:103F2000453F0008E53E00084B3F0008E53E00081D
:103F3000E53E00084F3F0008533F0008E53E0008FB
:103F4000573F0008236E9847CCE7636EFBE7A36EEC
:103F5000F9E7E36EF7E7236FF5E7BDE8704000206F
:103F600000F000BAC401002070B5164C0546B4F844
:103F7000541004F15602D2E85F3F994202D8BFF3D1
:103F80002F8F04E0581CC2E8560F06B1F3E79BB22E
:103F9000994205D829460220BDE87040FFF7EBB9E9
:103FA00004F15800FFF74EFFE36D43F82050637AA9
:103FB00023B9054B4FF080525A6070BD0123A372A4
:103FC000FBE700BFC401002000ED00E0EFF3108329
:103FD0002BB9EFF31180003818BF01207047012082
:103FE00070470378F12B00D07047C068F9E70000F4
:103FF00010B5C469621CD0E904310CD103B1596118
:1040000042691AB113610023436101E0074A136357
:104010000023C36110BD1BB1DA6959612244DA6122
:104020004269002AEED1014AD362F1E7C4010020BF
:1040300010B50A4A90F9201001234370536A1C32CC
:104040001BB193F920408C4205DCC0E9023290603C
:1040500003B1D86010BD1A469B68F1E7C401002087
:10406000014B5869704700BFC401002028B1037894
:10407000F12B01D1406B704700207047084B5A6A02
:10408000012022B9DA6A2AB91B6B33B970479268EA
:104090000130F6E712690130F5E71B690130F4E7FA
:1040A000C401002008B500F097FDDFF810C000DF64
:1040B0004FF0FF31002000F07DFDFEE701460008D3
:1040C000930710B502F0010422D400F1280384B153
:1040D00053E8000F00EA01028A4203D0BFF32F8F9A
:1040E000002005E020EA010243E8002404B1EFE7E4
:1040F00010BD53E8000F084203D1BFF32F8F0020FB
:1041000005E020EA010243E8002404B1F1E7EFE70B
:10411000806A01EA00031CB1994218BF0020E7E75A
:10412000002B08BF0020E3E710B5084A136B0021FD
:104130003BB94FF0FF34C0E90431C46121B10861DB
:1041400010BD19461B69F3E71063F9E7C4010020AD
:104150000246B8B10378F12B14D10B4B1B6813F056
:10416000040010D0136B0949186888420AD1526BB9
:104170000420904200D370471958B1F1CC3F02D1CE
:104180000430F6E700207047045F0108A52E5AE2CC
:1041900010B570B119B3134A0346546943F8044B80
:1041A000546A01205CB9D46A6CB9126B0AB18142BD
:1041B00010D810BD43F8044B0130A468F2E78142E7
:1041C000F8D10846EFE78142EFD943F8044B0130BC
:1041D0002469E9E743F8042B01301269E6E7084651
:1041E000E7E700BFC401002010B5002303808378F7
:1041F0009A07044608D513F0100F016B0E4B0FD031
:10420000D3F88400FFF7C6F9A378DB0712D50A4B71
:10421000D3F88800214638B1BDE81040FFF7BAB99D
:10422000586FFFF759F9EFE7BDE81040D3F8800069
:10423000FFF752B910BD00BFC4010020C278D207F9
:10424000034601D4FFF7D0BF042242700022C260AF
:10425000034A516B816001B1C8605363704700BF6E
:10426000C401002010B591F9202083681BB193F997
:104270002040944205DAC1E90230816003B1D9607F
:1042800010BD18469B68F1E783689A68826002B1A6
:10429000D0600022DA6018467047C2682AB183688D
:1042A000936003B1DA600023C360704710B5014624
:1042B000044664B12378F12B07D00846FFF7EDFFE1
:1042C0002046BDE81040FFF7CDBFE468F1E710BD20
:1042D0000123014643700148FFF7C4BFE0010020FD
:1042E00038B5164DEC6A44B3E369013BE36123BB87
:1042F0006378732B06D009D8532B0BD003F0DF0360
:10430000432B0DD12046FFF76CFE09E003F0EF03CD
:10431000832BF6E72046FFF764FE2146FFF724FDD6
:104320002046FFF7BAFFFFF7D3FF246924B1E36902
:10433000002BDDD000236361EC6238BDC401002096
:1043400090F82230826B13F0100F0CBF60202020F9
:104350001044704702234370014B9861704700BFBF
:10436000C401002070B5124D04462E7A696990B9D7
:10437000022E0FD16C6A6CB194F9202091F9203093
:104380009A4207DD2046FFF788FF0846FFF750FEF8
:104390006670AC6170BD022E05D190F9202091F9B4
:1043A00020309A42F1DC2046BDE87040FFF790BF14
:1043B000C40100202DE9F04F85B08146029128B953
:1043C0006FF0030100F0F6FB0024BCE0002A45D0AA
:1043D000966846B1B40702D1D368432B06D86FF074
:1043E00008010020EEE7D368002BF8D1D2E904459C
:1043F00097693CB1600702D1002D40F0B2806FF0A8
:104400000A01EEE72FB17B1E372B03D96FF00B01AA
:10441000E7E71827002D40F0A880D2E900A3019318
:104420004EBB574BD3F88800F0B1FFF799F806461A
:1044300000283AD04FF00108002C44D1DFF840B1F9
:10444000E5B9504ADBF88400556DB8B1FFF788F83C
:104450000246E0B148F01008344623E09246144684
:10446000182715460192DCE7D3F880000122442189
:10447000FEF7FEFFDBE74FF00008DDE72246DBF842
:1044800074002946FEF7F4FF02460028E4D1B8F193
:10449000000F16D0DBF8882052B110463146FFF7E6
:1044A00079F8002248F002087CB96FF0040198E71F
:1044B000DBF8800003923146FFF70EF8039A1446AA
:1044C000F0E74246EEE72246344640F2F1132380FD
:1044D000019BE3700023C4E90233C4E90433C4E957
:1044E0000633C4E90933C4E90B32A5F14003134490
:1044F000C4E90E397FB2244B84F80280FD21C4F850
:1045000004A084F8207084F82170618465631360CE
:104510001C4B1B685B071AD4A36B00201A4603F1DF
:10452000340143F8040B9942FBD1184BC2E90D3911
:104530004FF08073D363029B1362114B144A1A66C7
:104540002046FFF70FFF204605B0BDE8F08FAD080D
:10455000113D4FF0CC33002DDED042F8043F013D39
:10456000F9E7002F7FF44FAF182769077FF447AFB3
:10457000084BA5F1480199427FF64FAF3FE700BFD6
:10458000C4010020045F0108A52E5AE2A5400008DE
:10459000BD450008B7FFFF7F38B504461546FFF755
:1045A000CFFE01602046FFF723FD1DB1BDE8384076
:1045B000FFF7D8BEBDE83840FFF78ABE10B5437894
:1045C000332B04460CD1416A90F82320FFF778FD85
:1045D000014628B120460022BDE81040FFF7DCBFAD
:1045E00010BD10B50446806918B100221146FFF7CE
:1045F000D3FF6378232B02BFA36800229A6110BD0A
:1046000070B50F4C267A022E18D1636AB3B1656972
:10461000E86AFFF787FB2846FFF7E3FF04F11C0079
:10462000FFF732FE4670A061EFF30983AB6300230E
:1046300063612846BDE87040FFF700BE70BD00BF53
:10464000C401002038B5174C237A022B024627D12B
:10465000606A60B160694B1C427009D1FFF764FD6C
:104660001148FFF711FE02234370A061012038BDFD
:10467000E36A002213B1DD69A9420BD2C0E904321A
:10468000C1615AB11061002BEAD0DA695861511A40
:10469000D961E5E71A46491B1B69EBE7E062F2E7DF
:1046A0000020E4E7C4010020E001002038B50D4CF3
:1046B0000D48A26D0D4D0021FFF77CFE636EA862D0
:1046C0005BB1984758B9E26DE96C206EFFF772FE56
:1046D000A864003818BF012038BD0120FCE7002085
:1046E000FAE700BF045F0108254B0008C401002061
:1046F00010B50446EFF3058333B100206FF00501D8
:1047000000F058FA002010BDFFF760FC0028F4D13B
:10471000DFF808C0204600DFF5E700BFB54300081A
:1047200008B5EFF3058313B1054B586908BDFFF7D2
:104730004DFC0028F8D1DFF80CC000DFF6E700BF21
:10474000C40100206140000808B50246EFF305836C
:104750000BB1002008BDFFF739FC0028F9D1DFF8C4
:1047600008C0104600DFF5E76D40000808B50246B6
:10477000EFF305830BB1002008BDFFF727FC0028ED
:10478000F9D1DFF808C0104600DFF5E75141000815
:1047900008B5EFF305830BB1002008BDFFF716FC49
:1047A0000028F9D1DFF804C000DFF6E77D400008FB
:1047B00008B50246EFF305830BB1002008BDFFF7F3
:1047C00005FC0028F9D1DFF808C0104600DFF5E746
:1047D000914100080C4A536C30B5002413B11D6997
:1047E0008D420AD9C0E9024301611BB11D6998607D
:1047F000691A19612CB1E06030BD1C46491BDB68A9
:10480000ECE75064F8E700BFC40100202DE9F04157
:10481000184D6C6C54B323696E69013B2361012709
:10482000236913BBE3680BB1A2689A606B64002331
:10483000E86C1A4604F11801FFF7FAF858B1D5E907
:104840000583214603206B61FEF795FD6B6913B963
:10485000B04508BF0026E378012B09D161692046E5
:10486000FFF7B8FF6C6C002CDAD16E61BDE8F08107
:104870006770F7E7C401002008B5FFF7C7F818B95B
:10488000034B044A1A6508BD4FF0FF30FBE700BF39
:10489000C40100200D48000807B504464FF0FF335F
:1048A000002269462046FFF703F90028F6D1DDE92A
:1048B00000309847F2E70000A8B10C4B1B68B3FB2F
:1048C000F0F00138B0F1807F0DD2094BFF2283F860
:1048D0002320A3F54F6306221A60586000209860D9
:1048E000044B187070474FF0FF307047780300207A
:1048F00000ED00E0281D0020074B1A782AB10022A5
:104900001A70064B4FF080625A60054A136843F0F4
:1049100001031360704700BF281D002000ED00E078
:1049200010E000E0014B1B68704700BF10E000E0A2
:104930004FF0FF307047000008B5094B094A1A6074
:10494000094B9B1A094A1360094B0A4A1A600A4B21
:104950009B1A0A4A136000F051F800F083F800BF78
:10496000901D0020007C0120008001208C1D002073
:10497000901F002088320020007C01208C1F002026
:104980000E4838B50E4B03600B250E4B45601C24BA
:10499000C4608360FFF70EFA0B4B18600B480C4B9A
:1049A000C460C0E900350B4B8360FFF703FA0A4B84
:1049B0001860BDE8384008F03FBB00BF5C1D002018
:1049C000D85F0108701D00206C1D00202C1D0020E8
:1049D000E55F0108401D00203C1D0020FCF7C0BE23
:1049E000024B4FF0FF311868FFF7FCB96C1D002037
:1049F000014B1868FFF70EBA6C1D002008B501F0D6
:104A0000AFF90C4B0C4998684FF00053C21802F1F3
:104A10006042126843F8042B8B42F7D1054B4FF0EC
:104A200000529A6003F068FB04F042F9BDE80840C8
:104A300000F015B800ED00E09401002070477047C9
:104A400008B500F043F8FFF7F9FFFFF799FFFFF70C
:104A5000F6FF02F077F8BDE80840FFF7BFBFFEF7AA
:104A600095BC0000114C124B23614FF480536361DD
:104A70004423E3600F4BA360182307B5A3610E48DE
:104A80000E4B236022460021FFF732FE034628B971
:104A90000B49009022460B4802F05CF8FEF78EFCB2
:104AA0000023094900931A46F5E700BF983000201B
:104AB00078200020941D0020414A0008FF5F010873
:104AC000046001081D010180206001081FB5064B2C
:104AD0000FCB6C4684E80F002046FFF76BF9034BC1
:104AE000186004B010BD00BF3860010878300020A5
:104AF00073B506460C46154602F026F858B906343A
:104B00002ABF064B064953F824100023009332466F
:104B1000284602F01FF802B070BD00BFFC6101081A
:104B20005061010808B500F071F8000007B50023D6
:104B3000421E00930023042A19D8DFE802F003087C
:104B40000C1014000C490D48012202F003F80C4926
:104B50000C480222F9E70C490C480322F5E70C49FE
:104B60000C480422F1E70C490C480522EDE7024607
:104B70000B490C48E9E700BF4860010825010280A5
:104B800069600108260102808E6001082701028009
:104B9000C360010828010280FE6001082A0102802A
:104BA0003E61010800010280014A0146FFF7A0BFF3
:104BB00031010180014AFFF79BBF00BF3201018034
:104BC000014AFFF795BF00BF33010180014AFFF79B
:104BD0008FBF00BF3801018010B5FFF7A1FD034B67
:104BE0001B6813B1BDE81040184710BDD81D002048
:104BF00008B501F021FE01F0C7FF01F0FFFF01F051
:104C0000D9FFBDE8084001F02DBE000008B5024CF8
:104C100023689847FCE700BF6802002038B50546C6
:104C2000044655F8043B9B689847284602F022FE4C
:104C300023680546DB6820469847284638BD0000B3
:104C400013B5084B0360044602650191FCF7C6FDED
:104C50000199201D02F03EFC2046FCF7C9FD2046CC
:104C600002B010BD805C0108036801221B690021AD
:104C70001847036800221B69114618476FF015009A
:104C800070470000C36810B52BB9054905484FF4BB
:104C9000FD7201F011FDBDE810401B68184700BF10
:104CA000885901089359010807B5019001F0C4FD26
:104CB0000198012102F09EFE03B05DF804EB01F0C3
:104CC000D1BD07B5019001F0B7FD0198002102F0B8
:104CD00091FE03B05DF804EB01F0C4BD07B5CDE96A
:104CE000001001F0A9FDDDE9001002F07FFE03B025
:104CF0005DF804EB01F0B6BD416830B4034671B114
:104D0000D0E9032000F0010402B944B1451001EBE1
:104D100060000CB149598A58996830BC104730BCC2
:104D200070470000064B10B504460360806A08B166
:104D300001F0C6FB201DFCF775F9204610BD00BF31
:104D40001C62010810B50446FFF7ECFF20464FF443
:104D5000847102F029FA204610BD036870B504463C
:104D60000D461B68984704F13000C4F8D850294616
:104D700002F060FF236820465B68BDE8704018477A
:104D80007FB506461D4656F8303BCDE902211B682B
:104D9000044698479DF8203083F00103DDE90221A5
:104DA000009330462B4603F097F8236806465B686D
:104DB00020469847A81B18BF012004B070BD7FB5DE
:104DC00006461D4656F8303BCDE902211B680446D5
:104DD00098479DF8203083F00103DDE9022100931C
:104DE00030462B4603F018F8236806465B682046D9
:104DF0009847A81B18BF012004B070BD70B590B0D3
:104E00000D46144600211C2202A808F0FBFD0126D5
:104E100000231A46294602A8009600F0EBFC1C224B
:104E2000002109A808F0EEFD00231A46009621464D
:104E300009A800F0DFFC0A9B1A68099B1A4203D1FB
:104E40006FF0010010B070BD039B1968029B194000
:104E500043D109A8FFF742FF09A8FFF725FF0A245D
:104E6000002109A8FFF73AFF099B0C9A1B04136065
:104E7000052002F0DBF9012109A8FFF72FFF0B9BAA
:104E8000099A1A60052002F0D1F9013CE8D102A884
:104E9000FFF70AFF029B059A1B041360052002F02E
:104EA000C5F90B9B099A1A60052002F0BFF9049B13
:104EB000029A1A60052002F0B9F902A8FFF701FF73
:104EC00009A8FFF7FEFE0A9B1A68099B1A42B7D091
:104ED000039B1A68029B1A42B2D00020B2E7034635
:104EE000002243F8042B00F1280103F8012B99421A
:104EF000FBD1704708B5DC30FCF748FCBDE8084042
:104F000002F0CAB908B5DC30FCF740FCBDE8084047
:104F100002F0E0B9F8B51A4B03600D46194B436136
:104F2000002100F130070446C0E90711C0E909116A
:104F30000161818516468061A822384608F062FD2D
:104F4000114BC4F8D83004F1DC00FFF7C8FF20464D
:104F5000FFF7D0FF32462946A4F80451A4F80661B1
:104F60002046FFF74BFFB4F90621B4F90411384687
:104F700002F018FF2046FFF7C5FF2046F8BD00BF2E
:104F80001C620108F94C0008A086010007B5CDE9B4
:104F9000001001F051FCDDE9001003F0D7F903B077
:104FA0005DF804EB01F05EBC07B5CDE9001001F03F
:104FB00043FCDDE9001003F0B5FB03B05DF804EB42
:104FC00001F050BC07B5CDE9001001F035FCDDE97A
:104FD000001003F049FA03B05DF804EB01F042BCA5
:104FE00007B5CDE9001001F027FCDDE9001003F062
:104FF0009EFB03B05DF804EB01F034BC837E10B57A
:1050000004461BB901F0C0FD0123A37610BD837EC9
:1050100010B504461BB101F0CDFD0023A37610BDF1
:1050200010B5044601F008FCE37E4BB9B4F9181042
:10503000204603F0B3FA2046FFF7E0FF0123E376B2
:10504000BDE8104001F00EBC10B50023002204465C
:1050500001834383C2610362FFF7E2FF204610BD74
:1050600010B5044601F0E8FBE37E3BB1204603F0B7
:1050700067F92046FFF7CBFF0023E376BDE8104039
:1050800001F0F0BB10B50446FFF7EAFF204610BD63
:105090007047416830B4034671B1D0E9032000F095
:1050A000010402B944B1451001EB60000CB149594B
:1050B0008A58996830BC104730BC704770B500F111
:1050C0004C06B0F9C020B0F9BE100446304603F0DB
:1050D0002FFCD4E932530DB9DA070ED55A1004EB80
:1050E0006300DB0748BFA35894F8D01048BF5D5950
:1050F000B4F9D220B4F9D430A847D4F8B810304667
:1051000003F0F0FB224630460249BDE8704002F051
:1051100025BB00BF195300082DE9F04198461E4BEE
:1051200003601E4B436000251D4B856016464C22D4
:105130000446C0E90555C0E907550F46C36085849C
:1051400045634564A0F8485029460061104408F0C2
:1051500059FC40F20113A4F8BC304FF6FF7320460F
:10516000C4E92D58C4E93155C4E93655C4F8A450F2
:10517000A4F8BE70A4F8C060C4F8CC5084F8D05035
:10518000A4F8D230A4F8D430C4F8E050FFF796FF6A
:105190002046BDE8F08100BF34620108BD50000820
:1051A0009350000838B50546044655F84C3B1B683B
:1051B0009847284603F046FB236805465B6820466F
:1051C0009847284638BD38B50546044655F84C3B47
:1051D0001B689847284603F04DFB236805465B682B
:1051E00020469847284638BD03682DE9F341054617
:1051F0001B6816460F46984795F8BC30340103B13A
:10520000B6B195F8BD300BB1012E11D098342819E4
:10521000B84206D00190FBF705FF01983946FBF72D
:10522000FBFE2B685B68284602B0BDE8F0411847DA
:10523000983401F001FB2C44FA68E36805F14C084E
:105240009AB10BB901F0A0FCA74206D02046FBF7AB
:10525000E9FE39462046FBF7DFFE01223146404693
:1052600002F088FA01F0FEFADBE70BB101F0A2FCD4
:105270002046FBF7D7FE0022E260EFE730B51B4B7C
:10528000036085B000252A46694604460395FFF76A
:10529000ABFF6846FBF7C6FE012269462046039530
:1052A000FFF7A2FF6846FBF7BDFE94F8BC3013B9C8
:1052B00094F8BD301BB104F14C0003F05BFA04F12B
:1052C000A800FBF7AFFE04F19800FBF7ABFE04F17A
:1052D0003800FBF7A7FE04F12800FBF7A3FE206AC5
:1052E00008B101F0EDF8204605B030BD3462010888
:1052F00010B50446FFF7C2FF2046E42101F054FF39
:10530000204610BD4C3002F085BA10B54C300C462A
:1053100002F09CFA204610BD00EB0110983008B551
:10532000C3680BB1FFF7AEFC08BD036870B5044657
:105330001B680D46984794F8BC30AB422BD065B142
:1053400094F8BD304BB9A2686368511004EB620059
:10535000D20744BF6258D358984701F06DFA05B39D
:10536000D4F8A4305BB104F19800FFF78BFC01F096
:105370000BFC0122002104F14C0002F0FBF901F0CA
:1053800071FA84F8BC5035B994F8BD301BB904F1FA
:105390004C0003F0EFF9236820465B68BDE87040DD
:1053A00018472A46294604F14C0002F0E3F9D4F8E4
:1053B000A430002BE3D001F0FDFBE0E7036870B5FB
:1053C00004461B680D46984794F8BD30AB422BD07D
:1053D00065B194F8BC304BB9A2686368511004EB16
:1053E0006200D20744BF6258D358984701F024FAAC
:1053F00005B3D4F8B4305BB104F1A800FFF742FC68
:1054000001F0C2FB0122114604F14C0002F0B2F996
:1054100001F028FA84F8BD5035B994F8BC301BB9B6
:1054200004F14C0003F0A6F9236820465B68BDE850
:10543000704018472A46012104F14C0002F09AF905
:10544000D4F8B430002BE3D001F0B4FBE0E770B542
:10545000D0E90213D0E908250446521845EB0303AE
:1054600000F0A4F8636B2BB104F128001B68BDE8C1
:105470007040184770BD000038B50446154600F06E
:105480007FF8064B236000220023C4E90823002391
:10549000636384F83850204638BD00BF5862010865
:1054A00013B5044601A801F013F8204600F088F86F
:1054B000636B23B194F838300BB101F07BFB04F13E
:1054C0002800FBF7AFFD0023636301A801F008F893
:1054D00002B010BD70B5044615461E4600F070F8C7
:1054E000C4E90856A06900F014FC2A1846EB010331
:1054F0002046BDE8704000F059B8000010B50446E1
:1055000000F01AFC012201462046FFF7B5FF024BCE
:105510002360204610BD00BF4C620108884238B5A8
:1055200004460D4608D0FBF77DFDEB68E3601BB138
:105530005B68294620469847204638BDF7B50446A3
:1055400001A81D460F46164600F0C2FF636B23B943
:1055500094F838300BB101F017FB394604F12800FC
:10556000FFF7DCFF32462B462046FFF7B3FF01A8CA
:1055700000F0B6FF03B0F0BD03681B6818470000D9
:1055800010B50446074B236000220023C4E9022320
:1055900000230846A161C4E90433034900F048FB35
:1055A000204610BD646201087955000807B50090D7
:1055B00000F10801806900F079FB03B05DF804FB9D
:1055C00000F10801806900F089BB000010B5034BB1
:1055D00003600446FFF7F4FF204610BD6462010833
:1055E0000020704700290CBF6FF0180000207047A2
:1055F0000120704770476FF01C0070476FF01C006F
:1056000070476FF0150070476FF01500704701206C
:10561000704701207047002070470020704770B528
:1056200011F0010405468EB204D0FFF7BBFD041E45
:1056300018BF0124F30605D52846FFF7C4FD08B1BD
:1056400044F01004204670BDA0F1E400FFF7E7BF6E
:1056500008B5FFF76AFE002008BDA0F1E400FFF7DF
:10566000F7BF08B5FFF7AAFE002008BDA0F1E400CF
:10567000FFF7F7BF2DE9F04106460D461746CAB1C0
:1056800001F0D7F880F0010313F0FF0403D0336872
:1056900030461B68984705EB0708454505D015F8C7
:1056A000011B3046FFF731FEF7E71CB13368304687
:1056B0005B6898473846BDE8F081A0F1E400FFF749
:1056C000D9BF38B504460D4662B103681B689847D8
:1056D0002046FFF717FE2870236820465B6898472E
:1056E000012038BD1046FCE7A0F1E400FFF7E9BF58
:1056F00010B50446FFF710FD044B03F108024433D4
:105700002260C4F8E430204610BD00BF6862010882
:1057100070470000EFF3108372B6054A117831B973
:105720000449DB4303F001030B700123137070473E
:10573000051E0020041E002008B5EFF31083DB4394
:1057400013F0010304D006490648362200F0B4FFE6
:10575000054A1370054B1B7803B162B608BD00BF44
:10576000136301082F630108051E0020041E00209A
:10577000014B1878704700BF051E002070B50E461B
:105780000446154602F012F9013609D020460021E0
:1057900002F030F929462046BDE8704002F026B9F3
:1057A00070BD38B5036804460D465AB1826813606F
:1057B0002046012102F01EF929462046BDE8384066
:1057C00002F014B9C2681B04F1E737B50D46044670
:1057D000019202F0EBF8013507D0019A0021204632
:1057E00003B0BDE83040FFF7DCBF03B030BD00229E
:1057F000FFF7EBBFF8B5069F04460E461D4662B99B
:105800001A46FFF7BBFF013603D0236817B1A26821
:105810001360F8BDE2681B04FAE702F0C7F801362E
:10582000F7D03A4629462046BDE8F840FFF7B9BF11
:105830001FB5431C10D105B05DF804FB83420AD1AB
:105840008968039002F09CFC0398002105B05DF884
:1058500004EB02F01BBD0C31B1F900305A1CEDD144
:105860000023024602490348009301F073F900BF88
:105870004963010830010180884207B502460AD019
:10588000431C08D0013105D0002305490548009389
:1058900001F060F90146084603B05DF804FB00BF63
:1058A0005A63010830010180B1F900305A1C01D15E
:1058B00018467047834201D1486870470C31F3E7BE
:1058C000421C13B504460AD0FFF7EEFF431C06D175
:1058D0000023044904480093224601F03BF902B03A
:1058E00010BD00BF6B63010830010180B1F90030C9
:1058F0005A1C01D118467047834201D1886870470D
:105900000C31F3E72DE9F047466896F8327087BB13
:1059100003685B689847346A84422AD0336996F9F1
:1059200034203062041B1C40B368A4FB0345CAB199
:10593000736A14EB030845F10009002A1BDBC2F16E
:105940002001A2F1200328FA02F409FA01F10C4324
:1059500029FA03F31C4329FA02F504FA02F2A8EB30
:1059600002027262D6E90A321B1945EB0202C6E94D
:105970000A32BDE8F087D6F80CA03B4652464046B6
:1059800049460EF037FE04460D460AFB1082E8E752
:10599000824206D98A420BD9884294BF0020012056
:1059A0007047884206D98A428CBF00200120704788
:1059B00001207047002070472DE9F3474668376B98
:1059C00027F07F4727F0FF070446002F63D1FFF73A
:1059D00099FF7368002B61D0D3E90001D6E90A234F
:1059E0008B4208BF824205D323685B6902B0BDE8E1
:1059F000F04718476568D5E90A32B0EB030861EB58
:105A00000209D5E906234B4508BF4245D5F814A045
:105A100020D3EB6895F933C0A3FB080103FB091100
:105A2000BCF1000F13D0AA68531EC01841F1000149
:105A3000BCF1000F1CDBCCF12002ACF1200320FAFA
:105A40000CF001FA02F2104321FA03F318438245E5
:105A500028BF82462A6A336A92442A690AEA020205
:105A6000934209D11349144840F2C91200F024FEB0
:105A70003B460EF0BFFDEAE72368019210461B6922
:105A8000984723685B689847019A0146306AFFF798
:105A90007FFF0028A8D102B0BDE8F0877369306AA3
:105AA0003269184423681B69104002B0BDE8F04712
:105AB000184700BFAA630108BC630108436893F854
:105AC00030202DE9F3470646002A7DD193F8323085
:105AD000002B79D103681B6898473368DB699847C6
